:03000000020CB43B
:0C0CB400787FE4F6D8FD758164020CFB2B
:020011000A05DE
:10104E00012202100F00000000000000000000004E
:10105E00000000000010230000000000000000004F
:10106E0000000000000000012005010D05010E0228
:10107E00013302012100013C000834000000000091
:03108E000000005F
:0A136F00E4F521F560F53CF563227A
:10002600753E11E4F53FF540F541F542F543F544DB
:10003600F545F5461212C312122E12130C12135D59
:100046007F391210A7120C048F3EE53E640F60093B
:10005600E52164016003020306E4F521121321126F
:1000660011A912136FD28CAF20AD0DED2FFFE43323
:10007600FEAD0E7C00EF2DFFEC3EFEAD33EF2DF511
:1000860046EC3EF545AD46FC7F38120ED312073FCF
:10009600E56064017030C28C12135D121336E560A0
:1000A6006024120C048F3E12073FE53E640F600B7E
:1000B600E52164016005E53CB401E3E4F560F52162
:1000C600F53CD28C80D8120FD88E3F8F40E5404544
:1000D6003F600F12135DAD407F34121100E4F53F0F
:1000E600F5407B007A007934120B2BE537253BFF70
:1000F600E536353AFEAD5F7C0012064F8E418F42E3
:10010600E5352539FFE5343538FEAD5F7C0012064E
:100116004F8E438F44AF20AD0DED2FFFE433FEAD80
:100126000E7C00EF2DFFEC3EFEAD33EF2DF546ECD9
:100136003EF545E563640160030202D8AD42AC4179
:100146007F35120F577F647E001212EEAD44AC432A
:100156007F36120DCB7F647E001212EEAF5FEFFD8D
:100166007C007F37120E4F7F647E001212EEAD4682
:10017600AC457F38120ED3900012E493FFE50DD301
:100186009F5014E542940AE5419400400590001101
:1001960080478F0D020226900012E493FFE50DD3EF
:1001A6009F401E900011E493FEE50DD39E5012E58C
:1001B60042940AE541940050048F0D80638E0D80B1
:1001C6005F900011E493FFE50DD39F4053D3E542C2
:1001D6009414E54194005007A3E493F50D8041D3B0
:1001E600E5429414E54194004012D3E5429428E593
:1001F6004194005007EF240AF50D8024D3E542947C
:1002060028E54194004016D3E5429446E541940022
:10021600500B900011E4932414F50D8003750D63C3
:10022600900012E493FFE520D39F5014E544940A0E
:10023600E5439400400590001180478F200202CFCD
:10024600900012E493FFE520D39F401E900011E436
:1002560093FEE520D39E5012E544940AE5439400AC
:1002660050048F2080638E20805F900011E493FFFE
:10027600E520D39F4053D3E5449414E543940050BE
:1002860007A3E493F5208041D3E5449414E5439411
:10029600004012D3E5449428E54394005007EF2428
:1002A6000AF5208024D3E5449428E54394004016BB
:1002B600D3E5449446E5439400500B900011E49333
:1002C6002414F5208003752063850D0A85201FE41C
:1002D600F563D3E54294E7E5419403500DE5449474
:1002E600E7E54394035003020093E4F534F535F54E
:1002F60036F537F538F539F53AF53BF55F020093F3
:10030600E53EB40A15E4FD7F03121296E4FD7F0470
:100316001212967F017E00120A1EE53EB40B15E40A
:10032600FD7F01121296E4FD7F021212967F027E75
:0A03360000120A1E12073F02004BDE
:10073F00E52224FD60361470030207E024026003F3
:10074F000208C6E4F508F509F50BF50CF53D1200A6
:10075F000EEF70030208C61213790509E509AC08FC
:10076F0070020508142423F8A6078061050CE50C18
:10077F007002050BD3E50C9400E50B94805029AF64
:10078F000974222FF8E66446601ED3E5099407E545
:10079F000894005013AF24EF24D0FFE434FFFEC3BE
:1007AF00E5099FE5089E40047522042212000EEF12
:1007BF0070030208C61213790509E509AC08700227
:1007CF000508142423F8A607E4F50BF50C7522038E
:1007DF0022752202E4F547F548C3E5489509E54738
:1007EF009508501B74232548F8E6FF1213827F01EA
:1007FF007E001212EE0548E54870DE054780DA8567
:10080F00253DC3E50B948040030208C6E52364240D
:10081F0060030208C6E53D24CF6019147003020877
:10082F00BB1470030208C0240360030208C67521BD
:10083F00010208C3E52664317035E52724D075F031
:10084F000AA4FFE52824D02FF50D850D0AE50A75BA
:10085F00F00A8490134B93FD7F01121296E50A75EF
:10086F00F00A84E5F090134B93FD7F02121296E588
:10087F002664327035E52724D075F00AA4FFE528E9
:10088F0024D02FF52085201FE51F75F00A849013C3
:10089F004B93FD7F03121296E51F75F00A84E5F066
:1008AF0090134B93FD7F04121296800875600180A0
:0708BF0003753C0112135DFB
:0108C600220F
:1012C30075A897758921D288D28A758BFD758C4C48
:1012D300E4F58A758DFD758BFDD28E759850D2BC61
:0B12E300D2B8D2BA85201F850D0A2268
:1011A900E50A75F00A8490134B93FD7F011212969C
:1011B900E50A75F00A84E5F090134B93FD7F02125E
:1011C9001296E50A75F00A8490134B93FD7F03127A
:1011D9001296E50A75F00A84E5F090134B93FD7FAA
:0411E9000402129654
:10134B007E306D79335B5F707F7B014E370E6700AC
:02135B00000090
:10122E007D017F0C1212967D077F0B1212967D0F99
:10123E007F0A121296E4FD7F09121296E4FD7F01D9
:10124E00121296E4FD7F02121296E4FD7F03121233
:08125E0096E4FD7F04021296E4
:10129600C2A1C2A2E4FEEF3392A0EF25E0FFD2A2E4
:1012A600C2A20EBE08F0E4FEED3392A0ED25E0FDED
:0C12B600D2A2C2A20EBE08F0D2A1C2A1BA
:0112C2002209
:10130C00C280C281C282C283C284C285C286C2B676
:05131C00C287C2B722E8
:10132100C280C281D282D283C284C285D286C2B631
:05133100C287D2B722C3
:10133600D280C281C282D283C284C285D286C2B61C
:05134600D287C2B722AE
:1008C700EE6003020A1DEF24FE605E147003020946
:1008D7007B1470030209C524036003020A1DC2804A
:1008E700C281D282D283C284C285D286C2B6C2876F
:1008F700D2B7E50A75F00A8490134B93FD7F011276
:100907001296E50A75F00A84E5F090134B93FD7F84
:1009170002121296E50A75F00A8490134B93FD7F35
:1009270003121296E50A020A0DC280D281C282D250
:1009370083C284C285D286C2B6C287D2B7E50E7596
:10094700F00A8490134B93FD7F01121296E50E7502
:10095700F00A84E5F090134B93FD7F02121296E59F
:100967000E75F00A8490134B93FD7F03121296E5E0
:100977000E020A0DD280C281C282C283C284D2858E
:10098700C286D2B6D287C2B7E51F75F00A84901324
:100997004B93FD7F01121296E51F75F00A84E5F06F
:1009A70090134B93FD7F02121296E51F75F00A8490
:1009B70090134B93FD7F03121296E51F8048D28058
:1009C700C281C282C283D284C285C286D2B6D2878E
:1009D700C2B7E53375F00A8490134B93FD7F01127C
:1009E7001296E53375F00A84E5F090134B93FD7F7B
:1009F70002121296E53375F00A8490134B93FD7F2C
:100A070003121296E53375F00A84E5F090134B93C1
:070A1700FD7F04121296227C
:10109100015E140160000163000162000161000151
:0210A1005F00EE
:100D4000155EE55E6003020DCA755E14E50AF46087
:100D500010E4F5627561017F01FE1208C7150A8073
:100D60003FE50EF460117562017561017F027E003E
:100D70001208C7150E8029E51FF46010756201E4A2
:100D8000F5617F03FE1208C7151F8014E533F46078
:100D90000F7562017561017F047E001208C715336B
:100DA000E50AF47025E50EB4FF20E51FB4FF1BE54E
:100DB00033B4FF16E4F562F561850D0A750E027510
:0B0DC000330285201F055F75630122D0
:03000300020006F2
:0400060075600132EE
:03000B000211EDF2
:1011ED00C0E0C0F0C083C082C0D075D000C000C0C8
:1011FD0001C002C003C004C005C006C007758C4CF9
:10120D00758A00120D40D007D006D005D004D0034A
:10121D00D002D001D000D0D0D082D083D0F0D0E099
:01122D00328E
:0300130002000ADE
:01000A0032C3
:100C0400754D10E4F54EF54FF5507551FEF55275DE
:100C140090F085904EE54E54F064F07003020CB1F0
:100C2400E55164EF7003020CB185519085904EE557
:100C34004E54F064F0606012135D854E90534EF094
:100C4400E54E2490601B24C0601224E0600924F067
:100C54007012E4F550800D755001800875500280C3
:100C640003755003E551540FF54F24F9601A24FC21
:100C7400601124FE6008147012E4F54F800D754F66
:100C8400018008754F028003754F03E54F25E02569
:100C9400E02550F54D8016855152E55125E0FFE5DC
:0F0CA40052C413131354014FF551020C24AF4DDA
:010CB300221E
:040A1E008E478F4828
:100A2200754905754A10E4F54BF54C120C048F4AD2
:100A3200E54A640F7044E50A75F00A8490134B93FB
:100A4200FD7F01121296E50A75F00A84E5F0901313
:100A52004B93FD7F02121296E52075F00A849013E3
:100A62004B93FD7F03121296E52075F00A84E5F0A0
:100A720090134B93FD7F04021296E4D3954A5037AC
:100A8200E54A94095031054CE54C7002054BE54BA3
:100A9200701AE54C24FE6008047011854A498023CF
:100AA200E54975F00AA4254AF5498017854A497532
:100AB2004B00754C01800CE54AB40C07E4F549F58E
:100AC2004BF54CE54864014547702885490D854939
:100AD2000AE50A75F00A8490134B93FD7F01121206
:100AE20096E50A75F00A84E5F090134B93FD7F02B8
:100AF200121296E5486402454770288549208520F0
:100B02001FE51F75F00A8490134B93FD7F031212A9
:100B120096E51F75F00A84E5F090134B93FD7F0470
:090B2200121296754A10020A2D08
:101266003000000000000000300000000000000018
:101276003000000000000000300000000000000008
:1012860030000000000000003000000000000000F8
:0310A300016400E5
:03002300020016C2
:0B001600C299309805C2987564013251
:03000E00AF6422BA
:06137900E4F564AF9922C7
:03137F00F8E6FF8E
:031382008F99221E
:041100008F478D4840
:1011040078497C007D007BFF7A1279667E007F0837
:10111400120610E4F551F552754924754A3885478D
:101124004B85484C754D30754E30754F3075504673
:10113400F551F5527449255212137F7F017E001236
:1011440012EE0552E55270020551C39408E551941C
:031154000040E177
:011157002275
:060F57008F478C488D4914
:100F5D00784A7C007D007BFF7A12796E7E007F08D7
:100F6D00120610E4F552F553754A24754B38854732
:100F7D004CAE48AF49FC7D6412064FEF2430F54D61
:100F8D00AE48AF497C007D0A12064FEF2430F54E76
:100F9D00AE48AF497C007D0A12064FED2430F54F67
:100FAD00755030755146E4F552F553744A25531278
:100FBD00137F7F017E001212EE0553E5537002057B
:0A0FCD0052C39408E552940040E17D
:010FD70022F7
:060DCB008F478C488D49A2
:100DD100784A7C007D007BFF7A1279767E007F085D
:100DE100120610E4F552F553754A24754B388547C0
:100DF1004CAE48AF49FC7D6412064FEF2430F54DEF
:100E0100AE48AF497C007D0A12064FEF2430F54E03
:100E1100AE48AF497C007D0A12064FED2430F54FF4
:100E2100755030755146E4F552F553744A2553F81F
:100E3100E6FF1213827F017E001212EE0553E55385
:0D0E410070020552C39408E552940040DE93
:010E4E002281
:060E4F008F478C488D491D
:100E5500784A7C007D007BFF7A12797E7E007F08D0
:100E6500120610E4F552F553754A24754B3885473B
:100E75004CAE48AF49FC7D6412064FEF2430F54D6A
:100E8500AE48AF497C007D0A12064FEF2430F54E7F
:100E9500AE48AF497C007D0A12064FED2430F54F70
:100EA500755030755146E4F552F553744A2553F89B
:100EB500E6FF1213827F017E001212EE0553E55301
:0D0EC50070020552C39408E552940040DE0F
:010ED20022FD
:060ED3008F478C488D4999
:100ED900784A7C007D007BFF7A1279867E007F0844
:100EE900120610E4F552F553754A24754B388547B7
:100EF9004CAE48AF49FC7D6412064FEF2430F54DE6
:100F0900AE48AF497C007D0A12064FEF2430F54EFA
:100F1900AE48AF497C007D0A12064FED2430F54FEB
:100F2900755030755146E4F552F553744A2553F816
:100F3900E6FF1213827F017E001212EE0553E5537C
:0D0F490070020552C39408E552940040DE8A
:010F56002278
:0210A7008F4771
:1010A90078487C007D007BFF7A12798E7E007F086C
:1010B900120610E4F550F5517548247549388547ED
:1010C9004A754B30754C30754D30754E30754F46FD
:1010D900F550F55174482551F8E6FF1213827F0146
:1010E9007E001212EE0551E55170020550C39408B5
:0610F900E550940040DE0A
:0110FF0022CE
:100FD800E5626401703320A7167F64FE1212EE20CA
:100FE800A5057E007F312220A4057E007F322220C5
:100FF800A5177F647E001212EE20A7057E007F33BE
:101008002220A6057E007F3422E56164017033202A
:10101800A6167F64FE1212EE20A4057E007F3522FC
:1010280020A7057E007F362220A4177F647E001249
:1010380012EE20A6057E007F372220A5057E007FC0
:061048003822E4FEFF2245
:060B2B008B478A4889494E
:100B3100E4F54AF54BF54CF54DE562702320A70E1F
:100B41007F64FE1212EE30A50320A402054A20A5FF
:100B51000F7F647E001212EE30A70320A602054B20
:100B6100E561702320A60E7F64FE1212EE30A4030D
:100B710020A702054C20A40F7F0A7E001212EE303E
:100B8100A60320A502054D20A70E7F647E00121248
:100B9100EE20A604054A054C20A60E7F647E0012B5
:100BA10012EE20A504054C054B20A50E7F647E00A6
:100BB1001212EE20A404054B054D20A40E7F647E85
:100BC100001212EE20A704054D054A308C34E5636E
:100BD1007030AB47AA48A949854CF01206A4AB472F
:100BE100AA48A949900002E4854AF01206DC900067
:100BF10004E4854DF01206DC900006E4854BF0120A
:020C010006DC0F
:010C030022CE
:1003400000C1814001C0804101C0804100C18140A5
:1003500001C0804100C1814000C1814001C0804195
:1003600001C0804100C1814000C1814001C0804185
:1003700000C1814001C0804101C0804100C1814075
:1003800001C0804100C1814000C1814001C0804165
:1003900000C1814001C0804101C0804100C1814055
:1003A00000C1814001C0804101C0804100C1814045
:1003B00001C0804100C1814000C1814001C0804135
:1003C00001C0804100C1814000C1814001C0804125
:1003D00000C1814001C0804101C0804100C1814015
:1003E00000C1814001C0804101C0804100C1814005
:1003F00001C0804100C1814000C1814001C08041F5
:1004000000C1814001C0804101C0804100C18140E4
:1004100001C0804100C1814000C1814001C08041D4
:1004200001C0804100C1814000C1814001C08041C4
:1004300000C1814001C0804101C0804100C18140B4
:1004400000C0C101C30302C2C60607C705C5C40474
:10045000CC0C0DCD0FCFCE0E0ACACB0BC90908C8E4
:10046000D81819D91BDBDA1A1EDEDF1FDD1D1CDCD4
:1004700014D4D515D71716D6D21213D311D1D01044
:10048000F03031F133F3F23236F6F737F53534F434
:100490003CFCFD3DFF3F3EFEFA3A3BFB39F9F838A4
:1004A00028E8E929EB2B2AEAEE2E2FEF2DEDEC2C94
:1004B000E42425E527E7E62622E2E323E12120E004
:1004C000A06061A163A3A26266A6A767A56564A4F4
:1004D0006CACAD6DAF6F6EAEAA6A6BAB69A9A86864
:1004E00078B8B979BB7B7ABABE7E7FBF7DBDBC7C54
:1004F000B47475B577B7B67672B2B373B17170B0C4
:1005000050909151935352929656579755959454B3
:100510009C5C5D9D5F9F9E5E5A9A9B5B9959589823
:10052000884849894B8B8A4A4E8E8F4F8D4D4C8C13
:100530004484854587474686824243834181804083
:1012EE00EF1FAA0670011E4A6013E4FCFDC3ED94C5
:0D12FE007DEC940050EA0DBD00010C80F065
:01130B0022BF
:10135D00D2A37F647E001212EEC2A37F647E0002D0
:02136D0012EE7E
:0A1158008B548A5589568C578D5828
:101162007FFF7559FFE5581558AC57700215574C5B
:10117200602FAB540556E556AA557002055514F971
:101182001206366FFFE48F5DF55CF55BF55AAE5DD6
:10119200EE900340936559FFEE90044093F5598019
:0611A200C4EFFEE559FF59
:0111A8002224
:100CC000020026E493A3F8E493A34003F68001F224
:100CD00008DFF48029E493A3F85407240CC8C33335
:100CE000C4540F4420C8834004F456800146F6DF04
:100CF000E4800B010204081020408090104EE47E36
:100D0000019360BCA3FF543F30E509541FFEE493F8
:100D1000A360010ECF54C025E060A840B8E493A3BF
:100D2000FAE493A3F8E493A3C8C582C8CAC583CAEA
:100D3000F0A3C8C582C8CAC583CADFE9DEE780BEA2
:0110A6000049
:10054000E709F608DFFA8046E709F208DFFA803E9D
:1005500088828C83E709F0A3DFFA8032E309F6088A
:10056000DFFA8078E309F208DFFA807088828C83F2
:10057000E309F0A3DFFA806489828A83E0A3F608A6
:10058000DFFA805889828A83E0A3F208DFFA804C80
:1005900080D280FA80C680D4806980F28033801057
:1005A00080A680EA809A80A880DA80E280CA8033C0
:1005B00089828A83ECFAE493A3C8C582C8CCC58338
:1005C000CCF0A3C8C582C8CCC583CCDFE9DEE78008
:1005D0000D89828A83E493A3F608DFF9ECFAA9F087
:1005E000EDFB2289828A83ECFAE0A3C8C582C8CCDD
:1005F000C583CCF0A3C8C582C8CCC583CCDFEADEF6
:10060000E880DB89828A83E493A3F208DFF980CC57
:1006100088F0EF60010E4E60C388F0ED2402B40450
:100620000050B9F582EB2402B4040050AF232345F7
:0606300082239005907387
:10063600BB010689828A83E0225002E722BBFE02C2
:09064600E32289828A83E49322F5
:10064F00BC000BBE0029EF8DF084FFADF022E4CC8F
:10065F00F875F008EF2FFFEE33FEEC33FCEE9DEC58
:10066F00984005FCEE9DFE0FD5F0E9E4CEFD22ED9E
:10067F00F8F5F0EE8420D21CFEADF075F008EF2FE8
:10068F00FFED33FD4007985006D5F0F222C398FDD9
:05069F000FD5F0EA2276
:1006A400BB010789828A83020729500B09C5F027F9
:1006B400F7C5F01937F722BBFE0D09F8E325F0F36F
:1006C400C5F019E338F322F889828A8374019325EB
:0806D400F0C5F0F8E4933822B0
:1006DC00BB010DC58229C582C5833AC58302072992
:1006EC005011C58229F808E5F026F618F5F0E582D8
:1006FC0036F622BBFE11C58229F808E225F0F5F08A
:10070C00F218E23582F222F8E58229F582E5832A95
:0D071C00F58374019325F0F5F0E493382285
:10072900C5F0F8A3E028F0C5F0F8E582158270025B
:060739001583E038F022F8
:00000001FF
