:03000000020BA848
:0C0BA800787FE4F6D8FD758167020BEF42
:020009000A05E6
:100D35000122021010000000000000000000000069
:100D4500000000000010240000000000000000006A
:100D550000000000000000012105010D05010F0242
:100D6500013402010E0001230008350000000000D7
:030D75000000007B
:10002600753E11E4F53FF540F544F543F542F541DB
:10003600F548F547F546F545F549F54A120EC91254
:100046000E64120F12120F63120AF88F3EE53E6419
:100056000F6009E52364016003020314120F2712DF
:100066000DDFD28CE563B4011B120F63120F3CE562
:10007600636011120AF88F3EE53EB40FF2E4F563B1
:10008600D28C80EB120CBF8E3F8F40E540453F601F
:1000960008E4F53FF540120F637B007A00793512CC
:1000A6000A1FE538253CFFE537353BFEAD627C008F
:1000B600120811E48F448E43F542F541E536253AA0
:1000C600FFE5353539FEAD627C00120811E48F4834
:1000D6008E47F546F545AF21AD0DED2FFFE433FE16
:1000E600AD0F7C00EF2DFFEC3EFEAD34EF2DF54A53
:1000F600EC3EF549E566640160030202D290000A0F
:1001060093FFE50DD39F501CE47F0AFEFDAB44AA86
:1001160043A942A8411208EB4005900009805D9072
:10012600000A805890000AE493FFE50DD39F40290A
:10013600900009E493FFE50DD39F501DE47F0AFE6E
:10014600FDFCAB44AA43A942A8411208EB50059016
:10015600000A80039000098023900009E493FFE5DC
:100166000DD39F407AE47F14FEFDFCAB44AA43A95D
:1001760042A841D31208EB500990000AE493F50D0A
:10018600805DE47F14FEFDFCAB44AA43A942A8416E
:10019600D31208EB4019E47F28FEFDFCA841D312D8
:1001A60008EB500B900009E493240AF50D8030E427
:1001B6007F28FEFDFCAB44AA43A942A841D31208FE
:1001C600EB4019E47F46FEFDFCA841D31208EB5034
:1001D6000B900009E4932414F50D8003750D6390CC
:1001E600000AE493FFE521D39F501DE47F0AFEFD3C
:1001F600FCAB48AA47A946A8451208EB4005900063
:1002060009805D90000A805890000AE493FFE5217A
:10021600D39F4029900009E493FFE521D39F501D09
:10022600E47F0AFEFDFCAB48AA47A946A84512088A
:10023600EB500590000A8003900009802390000986
:10024600E493FFE521D39F407AE47F14FEFDFCABE7
:1002560048AA47A946A845D31208EB500990000AB8
:10026600E493F521805DE47F14FEFDFCAB48AA47CC
:10027600A946A845D31208EB4019E47F28FEFDFCE9
:10028600A845D31208EB500B900009E493240AF515
:10029600218030E47F28FEFDFCAB48AA47A946A88A
:1002A60045D31208EB4019E47F46FEFDFCA845D372
:1002B6001208EB500B900009E4932414F5218003F7
:1002C600752163850D0A852120E4F566E47F107E9D
:1002D60027FDFCAB44AA43A942A841D31208EB5020
:1002E60017E47F107E27FDFCAB48AA47A946A84520
:1002F6001208EB500302006AE4F535F536F537F5DA
:1003060038F539F53AF53BF53CF56202006AE53E0B
:10031600B40A15E4FD7F03120E9CE4FD7F04120E61
:100326009C7F017E00120912E53EB40B15E4FD7FA9
:1003360001120E9CE4FD7F02120E9C7F027E0012CB
:0803460009121206A502004E87
:1006A500E52224FD603614700302073F240260032F
:1006B5000207F7E4F508F509F50BF50CF53D120011
:1006C50006EF70030207F7120F7B0509E509AC0871
:1006D50070020508142424F8A607805A050CE50CB9
:1006E5007002050BD3E50C9400E50B94805022AF06
:1006F5000974232FF8E664466017D3E5099407E5E6
:10070500089400500CAF24C3E5099FE50894004008
:100715000475220422120006EF70030207F7120F78
:100725007B0509E509AC0870020508142424F8A620
:1007350007E4F50BF50C75220322E4F54BF54CC3E4
:10074500E54C9509E54B9508501B7424254CF8E6B6
:10075500FF12000E7F017E00120EF4054CE54C7071
:10076500DE054B80DA75220285253DC3E50B9480B5
:1007750040030207F7E53D24CE606C14606D1460FC
:100785006E2403706DE5266431702BE52724D0F5C2
:100795000D850D0AE50A75F00A84900F5193FD7FCA
:1007A50001120E9CE50A75F00A84E5F0900F51934D
:1007B500FD7F02120E9CE52664327036E52724D0B3
:1007C500F521852120E50A75F00A84900F5193FDE6
:1007D5007F03120E9CE50A75F00A84E5F0900F512F
:1007E50093FD7F04020E9C75630122750E0122752F
:0207F5002301DE
:0107F70022DF
:100EC90075A897758921D288D28A758BFD758C4C46
:100ED900E4F58A758DFD758BFDD28E759850D2BC5F
:0B0EE900D2B8D2BA852120850D0A2264
:100DDF00E50A75F00A84900F5193FD7F01120E9C66
:100DEF00E50A75F00A84E5F0900F5193FD7F02122A
:100DFF000E9CE50A75F00A84900F5193FD7F031244
:100E0F000E9CE50A75F00A84E5F0900F5193FD7F73
:040E1F0004020E9C1F
:100F51007E306D79335B5F707F7B014E370E6700AA
:020F610000008E
:100E64007D017F0C120E9C7D077F0B120E9C7D0F63
:100E74007F0A120E9CE4FD7F09120E9CE4FD7F01A3
:100E8400120E9CE4FD7F02120E9CE4FD7F03120E01
:080E94009CE4FD7F04020E9CAA
:100E9C00C2A1C2A2E4FEEF3392A0EF25E0FFD2A2E2
:100EAC00C2A20EBE08F0E4FEED3392A0ED25E0FDEB
:0C0EBC00D2A2C2A20EBE08F0D2A1C2A1B8
:010EC8002207
:100F1200C280C281C282C283C284C285C286C2B674
:050F2200C287C2B722E6
:100F2700C280C281D282D283C284C285D286C2B62F
:050F3700C287D2B722C1
:100F3C00D280C281C282D283C284C285D286C2B61A
:050F4C00D287C2B722AC
:10054E00EE60030206A4EF24FE605E147003020642
:10055E000214700302064C240360030206A4C28038
:10056E00C281D282D283C284C285D286C2B6C287EB
:10057E00D2B7E50A75F00A84900F5193FD7F0112F0
:10058E000E9CE50A75F00A84E5F0900F5193FD7FFD
:10059E0002120E9CE50A75F00A84900F5193FD7FAE
:1005AE0003120E9CE50A020694C280D281C282D248
:1005BE0083C284C285D286C2B6C287D2B7E50F7512
:1005CE00F00A84900F5193FD7F01120E9CE50F757A
:1005DE00F00A84E5F0900F5193FD7F02120E9CE518
:1005EE000F75F00A84900F5193FD7F03120E9CE558
:1005FE000F020694D280C281C282C283C284D28587
:10060E00C286D2B6D287C2B7E52075F00A84900FA3
:10061E005193FD7F01120E9CE52075F00A84E5F0E2
:10062E00900F5193FD7F02120E9CE52075F00A8407
:10063E00900F5193FD7F03120E9CE5208048D280CF
:10064E00C281C282C283D284C285C286D2B6D2870A
:10065E00C2B7E53475F00A84900F5193FD7F0112F5
:10066E000E9CE53475F00A84E5F0900F5193FD7FF2
:10067E0002120E9CE53475F00A84900F5193FD7FA3
:10068E0003120E9CE53475F00A84E5F0900F519339
:07069E00FD7F04120E9C22F7
:100D7800016114016300016600016500016400015E
:020D8800620007
:100C34001561E5616003020CBE756114E50AF46098
:100C440010E4F5657564017F01FE12054E150A80F6
:100C54003FE50FF460117565017564017F027E0044
:100C640012054E150F8029E520F46010756501E426
:100C7400F5647F03FE12054E15208014E534F460FC
:100C84000F7565017564017F047E0012054E1534ED
:100C9400E50AF47025E50FB4FF20E520B4FF1BE559
:100CA40034B4FF16E4F565F564850D0A750F027515
:0B0CB4003402852120056275660122D4
:03000300020F7574
:060F7500C28C756301321D
:03000B00020E23BF
:100E2300C0E0C0F0C083C082C0D075D000C000C095
:100E330001C002C003C004C005C006C007758C4CC6
:100E4300758A00120C34D007D006D005D004D00325
:100E5300D002D001D000D0D0D082D083D0F0D0E067
:010E6300325C
:03001300020011D7
:0100110032BC
:100AF800755110E4F552F553F5547555FEF55675D4
:100B080090F0859052E55254F064F07003020BA502
:100B1800E55564EF7003020BA5855590859052E565
:100B28005254F064F06060120F638552905352F093
:100B3800E5522490601B24C0601224E0600924F070
:100B48007012E4F554800D755401800875540280C4
:100B580003755403E555540FF55324F9601A24FC22
:100B6800601124FE6008147012E4F553800D75536B
:100B78000180087553028003755303E55325E0256A
:100B8800E02554F5518016855556E55525E0FFE5D5
:0F0B980056C413131354014FF555020B18AF51E8
:010BA700222B
:040912008E4B8F4C2D
:10091600754D05754E10E4F54FF550120AF88F4ED9
:10092600E54E640F7044E50A75F00A84900F519302
:10093600FD7F01120E9CE50A75F00A84E5F0900F22
:100946005193FD7F02120E9CE52175F00A84900FEB
:100956005193FD7F03120E9CE52175F00A84E5F0A4
:10096600900F5193FD7F04020E9CE4D3954E5037B1
:10097600E54E940950310550E5507002054FE54F9C
:10098600701AE55024FE6008047011854E4D8023D0
:10099600E54D75F00AA4254EF54D8017854E4D752B
:1009A6004F00755001800CE54EB40C07E4F54DF58B
:1009B6004FF550E54C6401454B7028854D0D854D2E
:1009C6000AE50A75F00A84900F5193FD7F01120E15
:1009D6009CE50A75F00A84E5F0900F5193FD7F02BD
:1009E600120E9CE54C6402454B7028854D218521ED
:1009F60020E52075F00A84900F5193FD7F03120EB7
:100A06009CE52075F00A84E5F0900F5193FD7F0474
:090A1600120E9C754E100209211C
:030D8A00016700FE
:03002300020016C2
:0B001600C299309805C298756701324E
:03000600AF6722BF
:060F7B00E4F567AF9922C6
:03000E008F9922A5
:100CBF00E5656401703320A7167F64FE120EF420E1
:100CCF00A5057E007F012220A4057E007F02222041
:100CDF00A5177F647E00120EF420A7057E007F0308
:100CEF002220A6057E007F0422E564640170332074
:100CFF00A6167F64FE120EF420A4057E007F052247
:100D0F0020A7057E007F062220A4177F647E001295
:100D1F000EF420A6057E007F072220A5057E007F0A
:060D2F000822E4FEFF2291
:060A1F008B4B8A4C894D4F
:100A2500E4F54EF54FF550F551E565702320A70E19
:100A35007F64FE120EF430A50320A402054E20A506
:100A45000F7F647E00120EF430A70320A602054F27
:100A5500E564702320A60E7F64FE120EF430A40315
:100A650020A702055020A40F7F0A7E00120EF43045
:100A7500A60320A502055120A70E7F647E00120E55
:100A8500F420A604054E055020A60E7F647E0012B4
:100A95000EF420A5040550054F20A50E7F647E00A9
:100AA500120EF420A404054F055120A40E7F647E88
:100AB50000120EF420A7040551054E308C34E5666E
:100AC5007030AB4BAA4CA94D8550F0120866AB4B64
:100AD500AA4CA94D900002E4854EF012089E9000A4
:100AE50004E48551F012089E900006E4854FF0124B
:020AF500089E59
:010AF70022DC
:10034E0000C1814001C0804101C0804100C1814097
:10035E0001C0804100C1814000C1814001C0804187
:10036E0001C0804100C1814000C1814001C0804177
:10037E0000C1814001C0804101C0804100C1814067
:10038E0001C0804100C1814000C1814001C0804157
:10039E0000C1814001C0804101C0804100C1814047
:1003AE0000C1814001C0804101C0804100C1814037
:1003BE0001C0804100C1814000C1814001C0804127
:1003CE0001C0804100C1814000C1814001C0804117
:1003DE0000C1814001C0804101C0804100C1814007
:1003EE0000C1814001C0804101C0804100C18140F7
:1003FE0001C0804100C1814000C1814001C08041E7
:10040E0000C1814001C0804101C0804100C18140D6
:10041E0001C0804100C1814000C1814001C08041C6
:10042E0001C0804100C1814000C1814001C08041B6
:10043E0000C1814001C0804101C0804100C18140A6
:10044E0000C0C101C30302C2C60607C705C5C40466
:10045E00CC0C0DCD0FCFCE0E0ACACB0BC90908C8D6
:10046E00D81819D91BDBDA1A1EDEDF1FDD1D1CDCC6
:10047E0014D4D515D71716D6D21213D311D1D01036
:10048E00F03031F133F3F23236F6F737F53534F426
:10049E003CFCFD3DFF3F3EFEFA3A3BFB39F9F83896
:1004AE0028E8E929EB2B2AEAEE2E2FEF2DEDEC2C86
:1004BE00E42425E527E7E62622E2E323E12120E0F6
:1004CE00A06061A163A3A26266A6A767A56564A4E6
:1004DE006CACAD6DAF6F6EAEAA6A6BAB69A9A86856
:1004EE0078B8B979BB7B7ABABE7E7FBF7DBDBC7C46
:1004FE00B47475B577B7B67672B2B373B17170B0B6
:10050E0050909151935352929656579755959454A5
:10051E009C5C5D9D5F9F9E5E5A9A9B5B9959589815
:10052E00884849894B8B8A4A4E8E8F4F8D4D4C8C05
:10053E004484854587474686824243834181804075
:100EF400EF1FAA0670011E4A6013E4FCFDC3ED94C3
:0D0F04007DEC940050EA0DBD00010C80F062
:010F110022BD
:100F6300D2A37F647E00120EF4C2A37F647E0002CC
:020F73000EF47A
:0A0D8E008B578A5889598C5A8D5BE7
:100D98007FFF755CFFE55B155BAC5A7002155A4C1A
:100DA800602FAB570559E559AA587002055814F930
:100DB8001207F86FFFE48F60F55FF55EF55DAE60D2
:100DC800EE90034E93655CFFEE90044E93F55C80C5
:060DD800C4EFFEE55CFF24
:010DDE0022F2
:100BB400020026E493A3F8E493A34003F68001F231
:100BC40008DFF48029E493A3F85407240CC8C33342
:100BD400C4540F4420C8834004F456800146F6DF11
:100BE400E4800B0102040810204080900D35E47E5F
:100BF400019360BCA3FF543F30E509541FFEE49306
:100C0400A360010ECF54C025E060A840B8E493A3CC
:100C1400FAE493A3F8E493A3C8C582C8CAC583CAF7
:100C2400F0A3C8C582C8CAC583CADFE9DEE780BEAF
:010D8D000065
:1007F800BB010689828A83E0225002E722BBFE02FF
:09080800E32289828A83E4932231
:10081100BC000BBE0029EF8DF084FFADF022E4CCCB
:10082100F875F008EF2FFFEE33FEEC33FCEE9DEC94
:10083100984005FCEE9DFE0FD5F0E9E4CEFD22EDDA
:10084100F8F5F0EE8420D21CFEADF075F008EF2F24
:10085100FFED33FD4007985006D5F0F222C398FD15
:050861000FD5F0EA22B2
:10086600BB010789828A830208FC500B09C5F02761
:10087600F7C5F01937F722BBFE0D09F8E325F0F3AB
:10088600C5F019E338F322F889828A837401932527
:08089600F0C5F0F8E4933822EC
:10089E00BB010DC58229C582C5833AC5830208FCFA
:1008AE005011C58229F808E5F026F618F5F0E58214
:1008BE0036F622BBFE11C58229F808E225F0F5F0C6
:1008CE00F218E23582F222F8E58229F582E5832AD2
:0D08DE00F58374019325F0F5F0E4933822C2
:1008EB00EB9FF5F0EA9E42F0E99D42F0E89C45F063
:0108FB0022DA
:1008FC00C5F0F8A3E028F0C5F0F8E5821582700287
:06090C001583E038F02223
:00000001FF
