:03000000020CA24D
:0C0CA200787FE4F6D8FD758164020CE94F
:020009000A05E6
:10103C00012202100F000000000000000000000060
:10104C000000000000102300000000000000000061
:10105C0000000000000000012005010D05010E023A
:10106C00013302012100013C0008340000000000A3
:03107C0000000071
:0A139B00E4F521F560F53CF563224E
:10002600753E11E4F53FF540F541F542F543F544DB
:10003600F545F5461212EF12125A121338121389A9
:100046007F39121095120BF28F3EE53E640F600960
:10005600E52164016003020319E53EB40F057F3014
:10006600121095E4F52112134D12119712139BD21B
:100076008CAF20AD0DED2FFFE433FEAD0E7C00EF0F
:100086002DFFEC3EFEAD33EF2DF546EC3EF545ADCE
:1000960046FC7F38120EC1120752E56064017039C2
:1000A600C28C1213627F32802BE560602C120BF239
:1000B6008F3E120752E53E640F600BE52164016036
:1000C60005E53CB401E3753E11E4F560F521F53C28
:1000D600D28C7F3312109580D0120FC68E3F8F4080
:1000E600E540453F600F121389AD407F341210EE94
:1000F600E4F53FF5407B007A007934120B19E537B9
:10010600253BFFE536353AFEAD5F7C001206628E72
:10011600418F42E5352539FFE5343538FEAD5F7C44
:10012600001206628E438F44AF20AD0DED2FFFE423
:1001360033FEAD0E7C00EF2DFFEC3EFEAD33EF2D12
:10014600F546EC3EF545E563640160030202EBAD5E
:1001560042AC417F35120F457F647E0012131AAD03
:1001660044AC437F36120DB97F647E0012131AAF7A
:100176005FEFFD7C007F37120E3D7F647E00121319
:100186001AAD46AC457F38120EC190000AE493FFC3
:10019600E50DD39F5014E542940AE54194004005CD
:1001A60090000980478F0D02023990000AE493FF00
:1001B600E50DD39F401E900009E493FEE50DD39E06
:1001C6005012E542940AE541940050048F0D806375
:1001D6008E0D805F900009E493FFE50DD39F405399
:1001E600D3E5429414E54194005007A3E493F50D3A
:1001F6008041D3E5429414E54194004012D3E54290
:100206009428E54194005007EF240AF50D8024D385
:10021600E5429428E54194004016D3E5429446E52C
:10022600419400500B900009E4932414F50D8003CB
:10023600750D6390000AE493FFE520D39F5014E503
:1002460044940AE5439400400590000980478F20B6
:100256000202E290000AE493FFE520D39F401E903D
:100266000009E493FEE520D39E5012E544940AE586
:1002760043940050048F2080638E20805F90000995
:10028600E493FFE520D39F4053D3E5449414E5431C
:1002960094005007A3E493F5208041D3E5449414D9
:1002A600E54394004012D3E5449428E54394005076
:1002B60007EF240AF5208024D3E5449428E54394E7
:1002C600004016D3E5449446E5439400500B900055
:1002D60009E4932414F5208003752063850D0A85AF
:1002E600201FE4F563D3E54294E7E5419403500DFE
:1002F600E54494E7E5439403500302009DE4F53496
:10030600F535F536F537F538F539F53AF53BF55F58
:1003160002009DE53EB40A15E4FD7F031212C2E415
:10032600FD7F041212C27F017E00120A06E53EB46A
:100336000B15E4FD7F011212C2E4FD7F021212C208
:0D0346007F027E00120A0612075202004BD1
:10075200E52224FD60361470030207F324026003CD
:100762000208AEE4F508F509F50BF50CF53D1200AB
:1007720006EF70030208AE1213A50509E509AC08DD
:1007820070020508142423F8A6078061050CE50C05
:100792007002050BD3E50C9400E50B94805029AF51
:1007A2000974222FF8E66446601ED3E5099407E532
:1007B2000894005013AF24EF24D0FFE434FFFEC3AB
:1007C200E5099FE5089E400475220422120006EF07
:1007D20070030208AE1213A50509E509AC08700200
:1007E2000508142423F8A607E4F50BF50C7522037B
:1007F2002275220285253DC3E50B94804003020841
:10080200AEE523642460030208AEE53D24CF6019FF
:100812001470030208A31470030208A824036003DF
:100822000208AE7521010208ABE52664317035E598
:100832002724D075F00AA4FFE52824D02FF50D85D2
:100842000D0AE50A75F00A8490137793FD7F011271
:1008520012C2E50A75F00A84E5F090137793FD7FE2
:10086200021212C2E52664327035E52724D075F0F3
:100872000AA4FFE52824D02FF52085201FE51F7547
:10088200F00A8490137793FD7F031212C2E51F755D
:10089200F00A84E5F090137793FD7F041212C28070
:0D08A200087560018003753C011213892266
:1012EF0075A897758921D288D28A758BFD758C4C1C
:1012FF00E4F58A758DFD758BFDD28E759850D2BC35
:0B130F00D2B8D2BA85201F850D0A223B
:10119700E50A75F00A8490137793FD7F011212C256
:1011A700E50A75F00A84E5F090137793FD7F021244
:1011B70012C2E50A75F00A8490137793FD7F031234
:1011C70012C2E50A75F00A84E5F090137793FD7F64
:0411D700040212C23A
:101377007E306D79335B5F707F7B014E370E670080
:02138700000064
:10125A007D017F0C1212C27D077F0B1212C27D0F15
:10126A007F0A1212C2E4FD7F091212C2E4FD7F0155
:10127A001212C2E4FD7F021212C2E4FD7F031212AF
:08128A00C2E4FD7F040212C260
:1012C200C2A1C2A2E4FEEF3392A0EF25E0FFD2A2B8
:1012D200C2A20EBE08F0E4FEED3392A0ED25E0FDC1
:0C12E200D2A2C2A20EBE08F0D2A1C2A18E
:0112EE0022DD
:10133800C280C281C282C283C284C285C286C2B64A
:05134800C287C2B722BC
:10134D00C280C281D282D283C284C285D286C2B605
:05135D00C287D2B72297
:10136200D280C281C282D283C284C285D286C2B6F0
:05137200D287C2B72282
:1008AF00EE6003020A05EF24FE605E147003020976
:1008BF00631470030209AD24036003020A05C280AA
:1008CF00C281D282D283C284C285D286C2B6C28787
:1008DF00D2B7E50A75F00A8490137793FD7F011262
:1008EF0012C2E50A75F00A84E5F090137793FD7F45
:1008FF00021212C2E50A75F00A8490137793FD7FF6
:10090F00031212C2E50A0209F5C280D281C282D255
:10091F0083C284C285D286C2B6C287D2B7E50E75AE
:10092F00F00A8490137793FD7F011212C2E50E75C2
:10093F00F00A84E5F090137793FD7F021212C2E55F
:10094F000E75F00A8490137793FD7F031212C2E5A0
:10095F000E0209F5D280C281C282C283C284D285BF
:10096F00C286D2B6D287C2B7E51F75F00A8490133C
:10097F007793FD7F011212C2E51F75F00A84E5F02F
:10098F0090137793FD7F021212C2E51F75F00A8450
:10099F0090137793FD7F031212C2E51F8048D28018
:1009AF00C281C282C283D284C285C286D2B6D287A6
:1009BF00C2B7E53375F00A8490137793FD7F011268
:1009CF0012C2E53375F00A84E5F090137793FD7F3B
:1009DF00021212C2E53375F00A8490137793FD7FEC
:1009EF00031212C2E53375F00A84E5F09013779382
:0709FF00FD7F041212C22269
:10107F00015E140160000163000162000161000163
:02108F005F0000
:100D2E00155EE55E6003020DB8755E14E50AF460AB
:100D3E0010E4F5627561017F01FE1208AF150A809D
:100D4E003FE50EF460117562017561017F027E0050
:100D5E001208AF150E8029E51FF46010756201E4CC
:100D6E00F5617F03FE1208AF151F8014E533F460A2
:100D7E000F7562017561017F047E001208AF153395
:100D8E00E50AF47025E50EB4FF20E51FB4FF1BE560
:100D9E0033B4FF16E4F562F561850D0A750E027522
:0B0DAE00330285201F055F75630122E2
:0300030002121CCA
:10121C00C0E0C0F0C083C082C0D075D000C000C098
:10122C0001C002C003C004C005C006C00775600140
:10123C00121389D007D006D005D004D003D002D029
:0E124C0001D000D0D0D082D083D0F0D0E032DC
:03000B000211DB04
:1011DB00C0E0C0F0C083C082C0D075D000C000C0DA
:1011EB0001C002C003C004C005C006C007758C4C0B
:1011FB00758A00120D2ED007D006D005D004D0036F
:10120B00D002D001D000D0D0D082D083D0F0D0E0AB
:01121B0032A0
:0300130002000EDA
:01000E0032BF
:100BF200754D10E4F54EF54FF5507551FEF55275F1
:100C020090F085904EE54E54F064F07003020C9F14
:100C1200E55164EF7003020C9F85519085904EE57B
:100C22004E54F064F06060121389854E90534EF07A
:100C3200E54E2490601B24C0601224E0600924F079
:100C42007012E4F550800D755001800875500280D5
:100C520003755003E551540FF54F24F9601A24FC33
:100C6200601124FE6008147012E4F54F800D754F78
:100C7200018008754F028003754F03E54F25E0257B
:100C8200E02550F54D8016855152E55125E0FFE5EE
:0F0C920052C413131354014FF551020C12AF4DFE
:010CA1002230
:040A06008E478F4840
:100A0A00754905754A10E4F54BF54C120BF28F4AFD
:100A1A00E54A640F7044E50A75F00A8490137793E7
:100A2A00FD7F011212C2E50A75F00A84E5F09013FF
:100A3A007793FD7F021212C2E52075F00A849013A3
:100A4A007793FD7F031212C2E52075F00A84E5F060
:100A5A0090137793FD7F040212C2E4D3954A50376C
:100A6A00E54A94095031054CE54C7002054BE54BBB
:100A7A00701AE54C24FE6008047011854A498023E7
:100A8A00E54975F00AA4254AF5498017854A49754A
:100A9A004B00754C01800CE54AB40C07E4F549F5A6
:100AAA004BF54CE54864014547702BE5496027F54D
:100ABA000D85490AE50A75F00A8490137793FD7F3C
:100ACA00011212C2E50A75F00A84E5F090137793D1
:100ADA00FD7F021212C2E54864024547702BE549C0
:100AEA006027F52085201FE51F75F00A849013778B
:100AFA0093FD7F031212C2E51F75F00A84E5F09098
:0F0B0A00137793FD7F041212C2754A10020A1569
:1012920030000000000000003000000000000000EC
:1012A20030000000000000003000000000000000DC
:1012B20030000000000000003000000000000000CC
:03109100016400F7
:03002300020016C2
:0B001600C299309805C2987564013251
:03000600AF6422C2
:0613A500E4F564AF99229B
:0313AB00F8E6FF62
:0313AE008F9922F2
:0410EE008F478D4853
:1010F20078497C007D007BFF7A1279927E007F081E
:10110200120623E4F551F552754924754A3885478C
:101112004B85484C754D30754E30754F3075504685
:10112200F551F552744925521213AB7F017E00121C
:10113200131A0552E55270020551C39408E5519401
:031142000040E189
:011145002287
:060F45008F478C488D4926
:100F4B00784A7C007D007BFF7A12799A7E007F08BD
:100F5B00120623E4F552F553754A24754B38854731
:100F6B004CAE48AF49FC7D64120662EF2430F54D60
:100F7B00AE48AF497C007D0A120662EF2430F54E75
:100F8B00AE48AF497C007D0A120662ED2430F54F66
:100F9B00755030755146E4F552F553744A2553128A
:100FAB0013AB7F017E0012131A0553E55370020534
:0A0FBB0052C39408E552940040E18F
:010FC5002209
:060DB9008F478C488D49B4
:100DBF00784A7C007D007BFF7A1279A27E007F0843
:100DCF00120623E4F552F553754A24754B388547BF
:100DDF004CAE48AF49FC7D64120662EF2430F54DEE
:100DEF00AE48AF497C007D0A120662EF2430F54E03
:100DFF00AE48AF497C007D0A120662ED2430F54FF4
:100E0F00755030755146E4F552F553744A2553F831
:100E1F00E6FF1213AE7F017E0012131A0553E5533E
:0D0E2F0070020552C39408E552940040DEA5
:010E3C002293
:060E3D008F478C488D492F
:100E4300784A7C007D007BFF7A1279AA7E007F08B6
:100E5300120623E4F552F553754A24754B3885473A
:100E63004CAE48AF49FC7D64120662EF2430F54D69
:100E7300AE48AF497C007D0A120662EF2430F54E7E
:100E8300AE48AF497C007D0A120662ED2430F54F6F
:100E9300755030755146E4F552F553744A2553F8AD
:100EA300E6FF1213AE7F017E0012131A0553E553BA
:0D0EB30070020552C39408E552940040DE21
:010EC000220F
:060EC1008F478C488D49AB
:100EC700784A7C007D007BFF7A1279B27E007F082A
:100ED700120623E4F552F553754A24754B388547B6
:100EE7004CAE48AF49FC7D64120662EF2430F54DE5
:100EF700AE48AF497C007D0A120662EF2430F54EFA
:100F0700AE48AF497C007D0A120662ED2430F54FEA
:100F1700755030755146E4F552F553744A2553F828
:100F2700E6FF1213AE7F017E0012131A0553E55335
:0D0F370070020552C39408E552940040DE9C
:010F4400228A
:021095008F4783
:1010970078487C007D007BFF7A1279BA7E007F0852
:1010A700120623E4F550F5517548247549388547EC
:1010B7004A754B30754C30754D30754E30754F460F
:1010C700F550F55174482551F8E6FF1213AE7F012C
:1010D7007E0012131A0551E55170020550C394089A
:0610E700E550940040DE1C
:0110ED0022E0
:100FC600E5626401703320A7167F64FE12131A20AF
:100FD600A5057E007F312220A4057E007F322220D7
:100FE600A5177F647E0012131A20A7057E007F33A3
:100FF6002220A6057E007F3422E56164017033203D
:10100600A6167F64FE12131A20A4057E007F3522E1
:1010160020A7057E007F362220A4177F647E00125B
:10102600131A20A6057E007F372220A5057E007FA5
:061036003822E4FEFF2257
:060B19008B478A48894960
:100B1F00E4F54AF54BF54CF54DE562702320A70E31
:100B2F007F64FE12131A30A50320A402054A20A5E4
:100B3F000F7F647E0012131A30A70320A602054B05
:100B4F00E561702320A60E7F64FE12131A30A403F2
:100B5F0020A702054C20A40F7F0A7E0012131A3023
:100B6F00A60320A502054D20A70E7F647E00121359
:100B7F001A20A604054A054C20A60E7F647E00129B
:100B8F00131A20A504054C054B20A50E7F647E008B
:100B9F0012131A20A404054B054D20A40E7F647E6A
:100BAF000012131A20A704054D054A308C34E56353
:100BBF007030AB47AA48A949854CF01206B7AB472E
:100BCF00AA48A949900002E4854AF01206EF900066
:100BDF0004E4854DF01206EF900006E4854BF01209
:020BEF0006EF0F
:010BF10022E1
:1003530000C1814001C0804101C0804100C1814092
:1003630001C0804100C1814000C1814001C0804182
:1003730001C0804100C1814000C1814001C0804172
:1003830000C1814001C0804101C0804100C1814062
:1003930001C0804100C1814000C1814001C0804152
:1003A30000C1814001C0804101C0804100C1814042
:1003B30000C1814001C0804101C0804100C1814032
:1003C30001C0804100C1814000C1814001C0804122
:1003D30001C0804100C1814000C1814001C0804112
:1003E30000C1814001C0804101C0804100C1814002
:1003F30000C1814001C0804101C0804100C18140F2
:1004030001C0804100C1814000C1814001C08041E1
:1004130000C1814001C0804101C0804100C18140D1
:1004230001C0804100C1814000C1814001C08041C1
:1004330001C0804100C1814000C1814001C08041B1
:1004430000C1814001C0804101C0804100C18140A1
:1004530000C0C101C30302C2C60607C705C5C40461
:10046300CC0C0DCD0FCFCE0E0ACACB0BC90908C8D1
:10047300D81819D91BDBDA1A1EDEDF1FDD1D1CDCC1
:1004830014D4D515D71716D6D21213D311D1D01031
:10049300F03031F133F3F23236F6F737F53534F421
:1004A3003CFCFD3DFF3F3EFEFA3A3BFB39F9F83891
:1004B30028E8E929EB2B2AEAEE2E2FEF2DEDEC2C81
:1004C300E42425E527E7E62622E2E323E12120E0F1
:1004D300A06061A163A3A26266A6A767A56564A4E1
:1004E3006CACAD6DAF6F6EAEAA6A6BAB69A9A86851
:1004F30078B8B979BB7B7ABABE7E7FBF7DBDBC7C41
:10050300B47475B577B7B67672B2B373B17170B0B0
:1005130050909151935352929656579755959454A0
:100523009C5C5D9D5F9F9E5E5A9A9B5B9959589810
:10053300884849894B8B8A4A4E8E8F4F8D4D4C8C00
:100543004484854587474686824243834181804070
:10131A00EF1FAA0670011E4A6013E4FCFDC3ED9498
:0D132A007DEC940050EA0DBD00010C80F038
:011337002293
:10138900D2A37F647E0012131AC2A37F647E000277
:02139900131A25
:0A1146008B548A5589568C578D583A
:101150007FFF7559FFE5581558AC57700215574C6D
:10116000602FAB540556E556AA557002055514F983
:101170001206496FFFE48F5DF55CF55BF55AAE5DD5
:10118000EE900353936559FFEE90045393F5598005
:06119000C4EFFEE559FF6B
:011196002236
:100CAE00020026E493A3F8E493A34003F68001F236
:100CBE0008DFF48029E493A3F85407240CC8C33347
:100CCE00C4540F4420C8834004F456800146F6DF16
:100CDE00E4800B010204081020408090103CE47E5A
:100CEE00019360BCA3FF543F30E509541FFEE4930B
:100CFE00A360010ECF54C025E060A840B8E493A3D2
:100D0E00FAE493A3F8E493A3C8C582C8CAC583CAFC
:100D1E00F0A3C8C582C8CAC583CADFE9DEE780BEB4
:01109400005B
:10055300E709F608DFFA8046E709F208DFFA803E8A
:1005630088828C83E709F0A3DFFA8032E309F60877
:10057300DFFA8078E309F208DFFA807088828C83DF
:10058300E309F0A3DFFA806489828A83E0A3F60893
:10059300DFFA805889828A83E0A3F208DFFA804C6D
:1005A30080D280FA80C680D4806980F28033801044
:1005B30080A680EA809A80A880DA80E280CA8033AD
:1005C30089828A83ECFAE493A3C8C582C8CCC58325
:1005D300CCF0A3C8C582C8CCC583CCDFE9DEE780F5
:1005E3000D89828A83E493A3F608DFF9ECFAA9F074
:1005F300EDFB2289828A83ECFAE0A3C8C582C8CCCA
:10060300C583CCF0A3C8C582C8CCC583CCDFEADEE2
:10061300E880DB89828A83E493A3F208DFF980CC44
:1006230088F0EF60010E4E60C388F0ED2402B4043D
:100633000050B9F582EB2402B4040050AF232345E4
:0606430082239005A37361
:10064900BB010689828A83E0225002E722BBFE02AF
:09065900E32289828A83E49322E2
:10066200BC000BBE0029EF8DF084FFADF022E4CC7C
:10067200F875F008EF2FFFEE33FEEC33FCEE9DEC45
:10068200984005FCEE9DFE0FD5F0E9E4CEFD22ED8B
:10069200F8F5F0EE8420D21CFEADF075F008EF2FD5
:1006A200FFED33FD4007985006D5F0F222C398FDC6
:0506B2000FD5F0EA2263
:1006B700BB010789828A8302073C500B09C5F027D3
:1006C700F7C5F01937F722BBFE0D09F8E325F0F35C
:1006D700C5F019E338F322F889828A8374019325D8
:0806E700F0C5F0F8E49338229D
:1006EF00BB010DC58229C582C5833AC58302073C6C
:1006FF005011C58229F808E5F026F618F5F0E582C5
:10070F0036F622BBFE11C58229F808E225F0F5F076
:10071F00F218E23582F222F8E58229F582E5832A82
:0D072F00F58374019325F0F5F0E493382272
:10073C00C5F0F8A3E028F0C5F0F8E5821582700248
:06074C001583E038F022E5
:00000001FF
